:100000005BC0000076C0000074C0000072C0000039
:1000100070C000006EC000006CC000006AC000002C
:1000200068C0000066C0000064C0000062C000003C
:1000300060C000005DC300005CC000005AC000004A
:1000400058C0000056C0000054C0000052C000005C
:1000500050C000004EC000004CC000004AC000006C
:1000600048C0000046C0000044C0000042C000007C
:1000700040C000003EC000003CC000003AC000008C
:1000800038C0000036C0000034C000007F01CB0142
:10009000CB01CB018301CB01CB01CB01CB01CB0148
:1000A0008B01CB01CB01CB01CB01CB0187018F01B0
:1000B000CB01B9019301A60111241FBECFEFD0E4FB
:1000C000DEBFCDBF11E0A0E0B1E0E2EEFDE000E078
:1000D0000BBF02C007900D92A031B107D9F727E0FE
:1000E000A0E1B1E001C01D92A934B207E1F79DD1B2
:1000F00076C686CFCF93DF93EC014DD420911001CB
:1001000030911101C9018C0F9D1F8C3D45E0940772
:1001100058F42817390758F4E901CE5EDE4F909362
:1001200011018093100105C0C0E0D0E002C0C0E022
:10013000D0E0F8D4CE01DF91CF9108950895FC016D
:100140000396928381832FEF3FEF3483238396833B
:1001500085839087878310820895FC01118610861D
:100160000895CF93DF93FC01DB0121813281E90106
:100170008A819B8113969C938E93129781819281A1
:1001800015969C938E9314978A819B81EC017D83B5
:100190006C83E9017B836A83728361831996FC9384
:1001A000EE93189780818F5F8083DF91CF910895C0
:1001B000CF93DF93EB01488159814F3F2FEF5207D7
:1001C00031F4DC011796ED91FC91189717C0FC01F2
:1001D0003396DC0115962D913C911697D9012D91FE
:1001E0003C914217530750F00280F381E02DA28129
:1001F000B3812D913C9142175307B0F7A281B3818F
:10020000BB83AA831596DC93CE931497FD83EC836E
:10021000D383C28399878887FC0120812F5F208345
:10022000DF91CF910895FC01A281B38184819581F2
:1002300015969C938E931497A481B58182819381A6
:1002400013969C938E931297A085B18511968D91EC
:100250009C911297E817F90731F4848195811296E1
:100260009C938E931197118610868C9181508C935C
:100270000895813081F0E1ECF0E080818861808335
:10028000E2ECF0E080818660808383E38093C400A9
:100290001092C5000895E9ECF0E0808188618083C8
:1002A000EAECF0E080818660808383E38093CC0079
:1002B0001092CD000895813041F0E0ECF0E08081B3
:1002C0008823ECF78091C6000895E8ECF0E0808187
:1002D0008823ECF78091CE0008958091C000882398
:1002E0000CF059C080E0E7DF90E0FC01E254F10936
:1002F000E631F10508F04FC0EA5BFF4F51C581E0E0
:1003000080934807089582E080934807089583E02A
:1003100080934807089584E080934807089585E016
:1003200080934807089582E8809380008AE1809353
:10033000810080E29EE4909387008093860088EE9F
:1003400093E09093890080938800089582E88093D9
:1003500080008AE18093810080E29EE49093870090
:100360008093860080ED97E09093890080938800C9
:10037000089582E8809380008AE18093810080E282
:100380009EE490938700809386008CED95E0909397
:10039000890080938800089580914807823089F011
:1003A00028F4882349F0813049F016C0843079F070
:1003B00058F0853079F010C012B80FC08AE082B9C9
:1003C0000CC085E082B909C089E082B906C086E028
:1003D00082B903C012B801C012B87FCF089510923D
:1003E0004807DADF8AE090E01ED4FBCFAF92BF92DD
:1003F000CF92DF92EF92FF920F93A12CB12CC12CE0
:10040000D12CE12CF12C082F20E030E045E550E024
:1004100062E071E08FEE91E0A2D10F91FF90EF903A
:10042000DF90CF90BF90AF9008958FEF81B980EFAC
:100430008AB980E01EDF81E0D9DF84D280E090E0DD
:10044000089531E1FC013083319722E22083319716
:10045000A3E3A08331976083319770833197108233
:10046000319760E8608331971082319762E0608352
:10047000319763E06083319764E06083319765E092
:100480006083319766E06083319767E060833197DE
:1004900068E06083319769E06083319760E1608351
:1004A00031973083319732E13083319733E13083B4
:1004B000319734E13083319735E13083319736E13C
:1004C0003083319737E13083319738E1308331978A
:1004D00039E13083319730E23083319731E2308334
:1004E00031972083319723E22083319740833197DE
:1004F0005083319726E22083319727E2208331977A
:1005000028E22083319729E22083319720E320835A
:10051000319721E3208386970895109289008CE714
:10052000809388008BE080938100EFE6F0E080818B
:1005300082608083A0914607B0914707CD91CDBFDF
:10054000DD91DEBFFF91EF91DF91CF91BF91AF9130
:100550009F918F917F916F915F914F913F912F91DB
:100560001F910F91FF90EF90DF90CF90BF90AF90D1
:100570009F908F907F906F905F904F903F902F90C3
:100580001F900F900FBE0F90089581E008950F9275
:100590000FB6F8940F921F9211242F923F924F9210
:1005A0005F926F927F928F929F92AF92BF92CF9203
:1005B000DF92EF92FF920F931F932F933F934F93EE
:1005C0005F936F937F938F939F93AF93BF93CF93DB
:1005D000DF93EF93FF93A0914607B09147070DB6C5
:1005E0000D920EB60D9270D3A0914607B0914707B9
:1005F000CD91CDBFDD91DEBFFF91EF91DF91CF9126
:10060000BF91AF919F918F917F916F915F914F912A
:100610003F912F911F910F91FF90EF90DF90CF901E
:10062000BF90AF909F908F907F906F905F904F9012
:100630003F902F901F900F900FBE0F9008950F9234
:100640000FB6F8940F921F9211242F923F924F925F
:100650005F926F927F928F929F92AF92BF92CF9252
:10066000DF92EF92FF920F931F932F933F934F933D
:100670005F936F937F938F939F93AF93BF93CF932A
:10068000DF93EF93FF93A0914607B09147070DB614
:100690000D920EB60D9285D117D3A0914607B09159
:1006A0004707CD91CDBFDD91DEBFFF91EF91DF9187
:1006B000CF91BF91AF919F918F917F916F915F91FA
:1006C0004F913F912F911F910F91FF90EF90DF90ED
:1006D000CF90BF90AF909F908F907F906F905F90E2
:1006E0004F903F902F901F900F900FBE0F90089546
:1006F000A6DF1895CF93DF93EC01E0914607F091C8
:100700004707938382838091F6069091F706C81776
:10071000D90760F4609146077091470780910C07F4
:1007200090910D076E5F7F4F43DD16C060914607C5
:100730007091470780910E0790910F076E5F7F4F72
:1007400037DD8091000190910101C817D90720F48D
:10075000D0930101C0930001DF91CF9108954F9292
:100760005F926F927F928F929F92AF92BF92CF9241
:10077000DF92EF92FF920F931F93CF93DF935C0171
:100780004B013A01290181E290E0B4DCEC01892BB4
:1007900009F4C6C0C114D10409F0BEC0C301AADC6B
:1007A000988F8F8B009719F4CE01C8DCB9C0A301D4
:1007B00065EA70E0FED29301215031098F89988D4E
:1007C0003C01620E731E48E050E0B401CE01499630
:1007D000F7D218A2102F043008F013E01E8B6E0120
:1007E00082E0C80ED11CC601B8DCCE010C96B5DC87
:1007F000D987C88784E090E0811B91099D878C8709
:10080000DB8BCA8BA201B501C3011BDE99838883F0
:10081000E114F10419F0F701D183C0830FB6F89405
:100820000F928091F8068F5F8093F80680914607BB
:1008300090914707892B69F5D0934707C0934607E6
:100840008091F8068130A1F582E297E078DC8BE2B6
:1008500097E075DC84E397E072DC8DE397E06FDC72
:1008600089E197E06CDC80E197E069DC83E097E068
:1008700066DC8AEF96E063DC89E197E090930F07EE
:1008800080930E0780E197E090930D0780930C070B
:100890000FC08091F30681110BC0E0914607F091E3
:1008A00047078689081720F0D0934707C09346076B
:1008B0008E899091F506981710F48093F506909123
:1008C000EE069F5F9093EE069091F406981710F451
:1008D0008093F40690E09C01220F331F220F331FF8
:1008E000220F331F820F931FB6018E5D984F39DCA4
:1008F0000F900FBE8091F306882351F0E0914607D8
:10090000F09147078689801728F441DE81E009C00D
:1009100081E007C081E005C0D88ECF8AC60147CFED
:100920008FEFDF91CF911F910F91FF90EF90DF90AC
:10093000CF90BF90AF909F908F907F906F905F907F
:100940004F900895AF92BF92CF92DF92EF92FF92B5
:100950000F93A12CB12CC12CD12CE12CF12C00E057
:1009600020E030E045E550E06AE071E08EE296E09C
:10097000F6DE813041F4F8948093F3061092F70686
:100980001092F606CADD0F91FF90EF90DF90CF90A6
:10099000BF90AF9008958091F2068F5F8093F2062A
:1009A00008950F931F93CF93DF938091F2068111E7
:1009B000AFC08091F6069091F70601969093F706E6
:1009C0008093F6068091F6069091F706892B99F5AB
:1009D00080910E0790910F0720910C0730910D0721
:1009E00030930F0720930E0790930D0780930C0709
:1009F0008091EF068F5F8093EF06E0910E07F091F4
:100A00000F078081811107C08FEF9FEF9093010145
:100A10008093000110C0E0910E07F0910F07058050
:100A2000F681E02D0680F781E02D828193819093FD
:100A30000101809300012091F6063091F706809124
:100A40000001909101012817390708F466C0E09170
:100A50000E07F0910F078081882399F0E0910E072F
:100A6000F0910F070580F681E02DC681D7818A813C
:100A70009B812091F6063091F70628173907F8F484
:100A800019C08FEF9FEF909301018093000145C043
:100A9000E0910E07F0910F070580F681E02DC681E9
:100AA000D7818A819B812091F6063091F70628171D
:100AB000390728F490930101809300012EC08E0124
:100AC0000E5F1F4FC801AFDB8C899D89892B19F000
:100AD000CE010C96A8DB8E899091F406981710F43D
:100AE0008093F40690E09C01220F331F220F331FE6
:100AF000220F331F820F931FB8018E5D984F31DB99
:100B0000E0910E07F0910F0780818111C1CFB9CF1D
:100B10008091F1068F5F8093F106DF91CF911F9155
:100B20000F910895CF92DF92EF92FF920F931F9350
:100B3000CF93DF930FB6F8940F928091F206815015
:100B40008093F2068091F20681115FC08091F806D1
:100B500081112FC05DC0D7011596ED91FC911697BC
:100B6000C681D781CE010C965EDB8E010E5F1F4FD2
:100B7000C80159DB8E899091F406981710F4809380
:100B8000F40690E09C01220F331F220F331F220F27
:100B9000331F820F931FB8018E5D984FE2DAE09108
:100BA0004607F09147079E898689981758F0DC2CF4
:100BB00009C0D12C0F2EF3E0EF2EF7E0FF2EF02D21
:100BC000CC24C394F70180818111C5CF8091F106B7
:100BD000882379F08091F106882391F0E2DE8091FC
:100BE000F10681508093F1068091F1068111F6CFD4
:100BF00007C0F1E0DF1621F08091F006813039F472
:100C00001092F006C4DC81E003C080E001C080E007
:100C10000F900FBEDF91CF911F910F91FF90EF903A
:100C2000DF90CF900895CF93DF93EC01892B91F063
:100C3000B2DE8091F6069091F706C80FD91F809119
:100C40004607909147070296EEDACE0153DD6ADF40
:100C5000811101C09CDCDF91CF9108950F2EFAEF36
:100C6000EF2EF6E0FF2EF02DC2E2D7E08091F906DC
:100C7000882329F190DED7011C9154DF1123F9F06C
:100C80000FB6F8940F92D7011596ED91FC91169737
:100C900006811781C8010296C6DA8091F806815054
:100CA0008093F8068091F90681508093F9060F90A1
:100CB0000FBEF8018789908D41DAC8013FDA88813B
:100CC0008230A0F264DCD2CF8091F206811113C091
:100CD0008091F40690E0FC01EE0FFF1FEE0FFF1F66
:100CE000EE0FFF1F8E0F9F1FFC01EE5DF84F8081FE
:100CF000882329F01BC081E08093F006089580913D
:100D0000F40681508093F4068091F40690E0FC0193
:100D1000EE0FFF1FEE0FFF1FEE0FFF1F8E0F9F1F27
:100D2000FC01EE5DF84F8081882349F38091F40641
:100D300090E09C01220F331F220F331F220F331F1D
:100D4000280F391FD901AE5DB84F1196ED91FC9176
:100D500012970280F381E02D1296FC93EE93119787
:100D60002B5D384FE217F30729F422813381FD010F
:100D700032832183FC01EE0FFF1FEE0FFF1FEE0FEA
:100D8000FF1F8E0F9F1FFC01EE5DF84F0180F28167
:100D9000E02D8681978190934707809346070895B9
:100DA000EE0FFF1F0024001C0BBE0790F691E02DF4
:100DB0000994DC0101C06D9341505040E0F7089563
:100DC000FB01DC014150504048F001900D920020A1
:100DD000C9F701C01D9241505040E0F70895F894C2
:020DE000FFCF43
:100DE200FFFF4361725461736B0049444C4500003C
:00000001FF
